:100000000C9434000C9451000C9451000C94510049
:100010000C9451000C9451000C9451000C9451001C
:100020000C9451000C9451000C9451000C9451000C
:100030000C9451000C94B4040C9451000C94510095
:100040000C9451000C9451000C949F090C94CD0910
:100050000C9451000C94C9040C9451000C94510060
:100060000C9451000C94510011241FBECFEFD8E026
:10007000DEBFCDBF11E0A0E0B1E0E8EDF8E102C0E5
:1000800005900D92A033B107D9F721E0A0E3B1E0CC
:1000900001C01D92AD37B207E1F70E9462040C94D3
:1000A0006A0C0C94000085B1826085B985E08A9560
:1000B000F1F7000085B18D7F85B90895CF93C82FE2
:1000C000662321F085B1816085B903C085B18E7F3B
:1000D00085B98AB180618AB98AB180628AB98AB1E8
:1000E00080648AB98AB180688AB98BB18F778BB9FD
:1000F0008BB18F7B8BB98BB18F7D8BB98BB18F7EA1
:100100008BB9CC231CF48BB180688BB9C6FF03C0BC
:100110008BB180648BB9C5FF03C08BB180628BB992
:10012000C4FF03C08BB180618BB90E9453008BB1B7
:100130008F778BB98BB18F7B8BB98BB18F7D8BB95F
:100140008BB18F7E8BB9C3FF03C08BB180688BB935
:10015000C2FF03C08BB180648BB9C1FF03C08BB1F8
:1001600080628BB9C0FF03C08BB180618BB90E94E4
:1001700053008BB180618BB98BB180628BB98BB12D
:1001800080648BB98BB180688BB987EB9BE001975A
:10019000F1F700C00000CF91089560E00E945E007A
:1001A000089561E00E945E000895611104C08058C6
:1001B0000E94CD00089580540E94CD00089581E0F2
:1001C0000E94CD00089561E00E945E000895CF93E3
:1001D000DF93FC0103C00E94E300FE01EF012196C2
:1001E00080818111F8CFDF91CF910895CF93C82FEF
:1001F00084B1816084B98AB180628AB984B1826035
:1002000084B98AB180618AB98AB180628AB98AB1B7
:1002100080648AB98AB180688AB98FEF99EF0197B3
:10022000F1F700C000008BB180628BB98BB18061A7
:100230008BB90E9453008FE19EE40197F1F700C053
:1002400000000E9453008FEF90E00197F1F700C08B
:1002500000000E9453008FEF90E00197F1F700C07B
:1002600000008BB18F7E8BB90E9453008FEF90E01E
:100270000197F1F700C0000088E20E94CD0088E0FD
:100280000E94CD000E94DF0086E00E94CD008C2FEE
:100290000E94CD00CF910895CF92DF92EF92FF920E
:1002A000CF93DF93EC016A017B0120E030E040E76F
:1002B00052E4C701B6010E94C30B882364F060E0DA
:1002C00085E00E94D50080E20E94E30080E191E099
:1002D0000E94E700CFC020E030E040E251E4C701D7
:1002E000B6010E94C30B8823A4F060E085E00E9461
:1002F000D50080E20E94E30088810E94E3008981AA
:100300000E94E3008EE20E94E3008A810E94E300E3
:10031000B1C020E030E040E251E4C701B6010E94E4
:10032000640A8823F4F420E030E040E85FE3C7018A
:10033000B6010E94C30B8823A4F060E085E00E9410
:10034000D50080E20E94E30080E30E94E300888100
:100350000E94E3008EE20E94E30089810E94E30094
:1003600089C020E030E040E85FE3C701B6010E94A9
:10037000640A8823ECF420E030E0A901C701B6014B
:100380000E94C30B8823A4F060E085E00E94D500A2
:1003900080E20E94E30080E30E94E30080E30E9489
:1003A000E3008EE20E94E30088810E94E30062C0C5
:1003B00020E030E0A901C701B6010E94640A882349
:1003C000F4F420E030E040E85FEBC701B6010E94A2
:1003D000C30B1816A4F460E085E00E94D500888164
:1003E0000E94E30080E30E94E30080E30E94E300B8
:1003F0008EE20E94E30089810E94E3003BC020E07E
:1004000030E040E85FEBC701B6010E94640A1816AD
:10041000F4F020E030E040E251ECC701B6010E9468
:10042000C30B1816A4F460E085E00E94D500888113
:100430000E94E30080E30E94E30089810E94E300C0
:100440008EE20E94E3008A810E94E30013C060E014
:1004500085E00E94D50088810E94E30089810E9486
:10046000E3008A810E94E3008EE20E94E3008B8118
:100470000E94E300DF91CF91FF90EF90DF90CF904B
:100480000895CF92DF92EF92FF92CF93DF93EC012A
:100490006A017B0120E030E048EC52E4C701B6017C
:1004A0000E94640A81110FC061E084E00E94D500BF
:1004B00085E191E00E94E7008EE20E94E30080E384
:1004C0000E94E30031C020E030E040E251E4C70187
:1004D000B6010E94C30B8823A4F061E084E00E946F
:1004E000D50080E20E94E30088810E94E3008981B8
:1004F0000E94E3008EE20E94E3008A810E94E300F2
:1005000013C061E084E00E94D50080E20E94E30015
:1005100080E30E94E30088810E94E3008EE20E9453
:10052000E30089810E94E300DF91CF91FF90EF907B
:10053000DF90CF9008950F931F93CF93DF93EC013B
:100540008B018617970708F001C0CB018C179D0718
:1005500009F5BE0180E090E00E94110B26E636E628
:1005600046E65FE30E94C80B0E94DB0A6017710732
:1005700088F18091360198E2980F973458F5865F9C
:100580008093360125E045E250E064E270E00E948D
:10059000FF0820C0B80180E090E00E94110B26E621
:1005A00036E646E65FE30E94C80B0E94DB0A6C1742
:1005B0007D0780F0809136019EE1980F973450F4CA
:1005C0008A508093360125E045E250E064E270E015
:1005D0000E94FF08DF91CF911F910F9108956F92B4
:1005E0007F928F929F92AF92BF92CF92DF92EF92C3
:1005F000FF920F931F93CF93DF93CDB7DEB728976A
:100600000FB6F894DEBF0FBECDBF5C016B017A015F
:1006100089019A8389837C836B835E834D833887CA
:100620002F833C01660E771E769467944A01820EF2
:10063000931E9694879420E030E080E090E012C012
:10064000E22FF0E0EE0FFF1F41E050E04C0F5D1F86
:10065000E40FF51F408151818417950710F4322F64
:10066000CA012F5F243060F381E0830F323008F03D
:100670007CC08130E9F5B50180E090E00E94110B6B
:1006800026E636E646E65FE30E94C80B0E94DB0AD8
:10069000C616D70628F0B401C3010E949B02DEC033
:1006A00080913601882394F08091370190E5980F6E
:1006B0009B3A08F0D3C08A508093370124E045E28A
:1006C00050E064E270E00E94FF08C8C080913701EA
:1006D0009AE5980F9B3A08F0C1C0865F8093370176
:1006E00024E045E250E064E270E00E94FF08B6C0FA
:1006F000B60180E090E00E94110B26E636E646E661
:100700005FE30E94C80B0E94DB0AA616B70628F01A
:10071000B401C3010E949B02A1C0809136018823CD
:1007200094F08091370190E5980F9B3A08F096C0BD
:10073000865F8093370124E045E250E064E270E098
:100740000E94FF088BC0809137019AE5980F9B3A71
:1007500008F084C08A508093370124E045E250E0DD
:1007600064E270E00E94FF0879C08330E9F5B701C8
:1007700080E090E00E94110B26E636E646E65FE355
:100780000E94C80B0E94DB0A0617170728F0B40165
:10079000C3010E949B0262C080913601882394F0BD
:1007A0008091370190E5980F9B3A08F057C08A5026
:1007B0008093370124E045E250E064E270E00E945B
:1007C000FF084CC0809137019AE5980F9B3A08F0DA
:1007D00045C0865F8093370124E045E250E064E243
:1007E00070E00E94FF083AC0B80180E090E00E94EB
:1007F000110B26E636E646E65FE30E94C80B0E9430
:10080000DB0AE616F70628F0B401C3010E949B023A
:1008100025C08091360188238CF08091370190E5C6
:10082000980F9B3AD8F4865F8093370124E045E225
:1008300050E064E270E00E94FF0810C08091370130
:100840009AE5980F9B3A50F48A508093370124E040
:1008500045E250E064E270E00E94FF0828960FB67F
:10086000F894DEBF0FBECDBFDF91CF911F910F91E6
:10087000FF90EF90DF90CF90BF90AF909F908F90C0
:100880007F906F90089545E065E270E084E290E02B
:100890000E941A0888ED80933601089544E065E2CD
:1008A00070E084E290E00E9481071092370145E0F9
:1008B00065E270E084E290E00E941A0888ED80937F
:1008C000360108958CE00E94F6000E944E0460E01C
:1008D00080E00E94D50089E191E00E94E70061E09C
:1008E00080E00E94D50086E291E00E94E70080E46B
:1008F0000E94CD00C0E008C0EC2FF0E0E050FF4FB8
:1009000080810E94D100CF5FC833B0F380E80E949D
:10091000CD0060E08AE00E94D50080E00E94E30004
:1009200061E089E00E94D50081E00E94E30080EC54
:1009300080937C00EAE7F0E080818068808380819A
:1009400088608083808187608083E1E8F0E0808137
:100950008B7F8083808183608083EFE6F0E08081FD
:10096000816080837894FFCF1F920F920FB60F9211
:1009700011248F93EF93FF93EAE7F0E08081806486
:100980008083FF91EF918F910F900FBE0F901F907A
:1009900018951F920F920FB60F921124CF92DF92EB
:1009A000EF92FF922F933F934F935F936F937F93B9
:1009B0008F939F93AF93BF93EF93FF93CF93DF9367
:1009C00000D000D0CDB7DEB780E390E39A8389836F
:1009D0009C838B8380917C00823C09F48EC030F430
:1009E000803C69F0813C09F440C018C1843C09F4A2
:1009F000C0C008F4A0C0853C09F4D9C00FC1609103
:100A000078007091790080E090E00E94110B20E066
:100A100030E848E654E40E94690A20E030E048ECFF
:100A200052E40E94C80B20E030E048E452E40E9407
:100A3000F7096B017C0120E030E040E251E40E94C4
:100A4000C80B0E94DB0ADC01CB014AE0BE016F5FEC
:100A50007F4F0E94350CB701A601CE0101960E947E
:100A60004C0181EC80937C00D9C06091780070913A
:100A7000790080E090E00E94110B20E030E848E629
:100A800054E40E94690A20E030E040E850E40E940B
:100A9000C80B20E030E040EA50E40E94690A21EDF2
:100AA00032E24BE15EE30E94F7092CE837E640EDC5
:100AB0005BE30E94690A2DEC3CEC4CEC5EE30E9487
:100AC000F8096B017C0120E030E040E251E40E9433
:100AD000C80B0E94DB0ADC01CB014AE0BE016F5F5C
:100AE0007F4F0E94350CB701A601CE0101960E94EE
:100AF000410282EC80937C0091C0609178007091FB
:100B0000790080E090E00E94110B20E030E848E698
:100B100054E40E94690A20E030E04AE754E40E946D
:100B2000C80B0E94E20A709335016093340183EC94
:100B300080937C0073C0609178007091790080E0B0
:100B400090E00E94110B20E030E848E654E40E9457
:100B5000690A20E030E04AE754E40E94C80B0E9492
:100B6000E20A709333016093320184EC80937C003D
:100B700055C0609178007091790080E090E00E940B
:100B8000110B20E030E848E654E40E94690A20E0B6
:100B900030E04AE754E40E94C80B0E94E20A7093D6
:100BA00031016093300185EC80937C0037C0609107
:100BB00078007091790080E090E00E94110B20E0B5
:100BC00030E848E654E40E94690A20E030E04AE751
:100BD00054E40E94C80B0E94E20AE0903201F090B7
:100BE0003301F701E60FF71FA0913401B0913501F1
:100BF000EA0FFB1F4091300150913101E40FF51FC6
:100C0000E839F84030F09B01B701CD010E94EF02B6
:100C100002C00E94430480EC80937C000F900F90F0
:100C20000F900F90DF91CF91FF91EF91BF91AF9116
:100C30009F918F917F916F915F914F913F912F91F4
:100C4000FF90EF90DF90CF900F900FBE0F901F900E
:100C50001895DC01FB019C9121E030E002C0220FDD
:100C6000331F4A95E2F7922B9C939081822F8095B7
:100C7000982390839081292B2083A7E8B3E11197D3
:100C8000F1F700C00000908189238083BFE52AEE40
:100C900080E0B15020408040E1F700C0000008959E
:100CA000DC01FB019C9121E030E002C0220F331FE8
:100CB0004A95E2F7922B9C939081822F80959823FE
:100CC00090839081292B2083AFE7B2E11197F1F750
:100CD00000C00000908189238083B2E32BEE80E086
:100CE000B15020408040E1F700C000C00895DC0111
:100CF000FB019C9121E030E002C0220F331F4A9596
:100D0000E2F7922B9C939081822F80959823908379
:100D10009081292B2083A7E7B1E11197F1F700C05B
:100D20000000908189238083B6E02CEE80E0B150F2
:100D300020408040E1F70895DC01FB019C9121E017
:100D400030E002C0220F331F4A95E2F7922B9C93AA
:100D50009081822F8095982390839081292B2083E6
:100D6000AFE6B0E11197F1F700C000009081892350
:100D70008083B9ED2CEE80E0B15020408040E1F757
:100D800000000895DC01FB019C9121E030E002C0ED
:100D9000220F331F4A95E2F7922B9C939081822F6A
:100DA0008095982390839081292B2083A7E6BFE02C
:100DB0001197F1F700C00000908189238083BCEA7D
:100DC0002DEE80E0B15020408040E1F700C0089552
:100DD000DC01FB019C9121E030E002C0220F331FB7
:100DE0004A95E2F7922B9C939081822F80959823CD
:100DF00090839081292B2083AFE5BEE01197F1F716
:100E000000C00000908189238083BFE72EEE80E040
:100E1000B15020408040E1F700C000000895DC019F
:100E2000FB019C9121E030E002C0220F331F4A9564
:100E3000E2F7922B9C939081822F80959823908348
:100E40009081292B2083A7E5BDE01197F1F700C021
:100E50000000908189238083B2E52FEE80E0B150BD
:100E600020408040E1F700C000C00895DC01FB0194
:100E70009C9121E030E002C0220F331F4A95E2F737
:100E8000922B9C939081822F8095982390839081C0
:100E9000292B2083AFE4BCE01197F1F700C00000DC
:100EA000908189238083B6E220EF80E0B15020401A
:100EB0008040E1F70895DC01FB019C9121E030E0E6
:100EC00002C0220F331F4A95E2F7922B9C93908128
:100ED000822F8095982390839081292B2083A7E4EB
:100EE000BBE01197F1F700C0000090818923808357
:100EF000B9EF20EF80E0B15020408040E1F70000E2
:100F00000895DC01FB019C9121E030E002C0220F3A
:100F1000331F4A95E2F7922B9C939081822F809504
:100F2000982390839081292B2083AFE3BAE0119717
:100F3000F1F700C00000908189238083BCEC21EF91
:100F400080E0B15020408040E1F700C00895DC010E
:100F5000FB019C9121E030E002C0220F331F4A9533
:100F6000E2F7922B9C939081822F80959823908317
:100F70009081292B2083A7E3B9E01197F1F700C0F6
:100F80000000908189238083BFE922EF80E0B15087
:100F900020408040E1F700C000000895DC01FB0123
:100FA0009C9121E030E002C0220F331F4A95E2F706
:100FB000922B9C939081822F80959823908390818F
:100FC000292B2083AFE2B8E01197F1F700C00000B1
:100FD000908189238083B2E723EF80E0B1502040E5
:100FE0008040E1F700C000C00895DC01FB019C9146
:100FF00021E030E002C0220F331F4A95E2F7922B26
:101000009C939081822F8095982390839081292BA7
:101010002083A7E2B7E01197F1F700C000009081AC
:1010200089238083B6E424EF80E0B15020408040E3
:10103000E1F70895DC01FB019C9121E030E002C062
:10104000220F331F4A95E2F7922B9C939081822FB7
:101050008095982390839081292B2083AFE1B6E07F
:101060001197F1F700C00000908189238083B9E1D6
:1010700025EF80E0B15020408040E1F70000089566
:10108000DC01FB019C9121E030E002C0220F331F04
:101090004A95E2F7922B9C939081822F809598231A
:1010A00090839081292B2083A7E1B5E01197F1F778
:1010B00000C00000908189238083BCEE25EF80E092
:1010C000B15020408040E1F700C00895DC01FB01F1
:1010D0009C9121E030E002C0220F331F4A95E2F7D5
:1010E000922B9C939081822F80959823908390815E
:1010F000292B2083AFE0B4E01197F1F700C0000086
:10110000908189238083BFEB26EF80E0B15020409F
:101110008040E1F700C000000895DC01FB019C91D4
:1011200021E030E002C0220F331F4A95E2F7922BF4
:101130009C939081822F8095982390839081292B76
:101140002083A7E0B3E01197F1F700C00000908181
:1011500089238083B2E927EF80E0B15020408040AE
:10116000E1F700C000C00895DC01FB019C9121E083
:1011700030E002C0220F331F4A95E2F7922B9C9376
:101180009081822F8095982390839081292B2083B2
:10119000AFEFB1E01197F1F700C000009081892313
:1011A0008083B6E628EF80E0B15020408040E1F730
:1011B0000895DC01FB019C9121E030E002C0220F88
:1011C000331F4A95E2F7922B9C939081822F809552
:1011D000982390839081292B2083A7EFB0E011976B
:1011E000F1F700C00000908189238083B9E329EFE3
:1011F00080E0B15020408040E1F700000895FB01FD
:10120000BA01882309F469C014F58E3C09F47EC044
:101210007CF4803B09F489C024F4863A09F48AC03E
:1012200008958A3B09F47CC0843C09F474C0089595
:10123000823E09F461C024F4883D09F462C0089537
:101240008C3E09F454C0863F09F44CC008958233A3
:1012500059F15CF48431B9F11CF48A30C9F1089574
:101260008E3161F1883229F10895863499F01CF4A9
:101270008C33A9F00895803541F08A3509F05EC0BD
:10128000422FCF010E9429060895422FCF010E94CC
:1012900050060895422FCF010E9477060895422FED
:1012A000CF010E949C060895422FCF010E94C206E2
:1012B0000895422FCF010E94E8060895422FCF01E2
:1012C0000E940F070895422FCF010E94360708950C
:1012D000422FCF010E945B070895422FCF010E9449
:1012E00081070895422FCF010E94A7070895422F3A
:1012F000CF010E94CE070895422FCF010E94F5072B
:101300000895422FCF010E941A080895422FCF015D
:101310000E9440080895422FCF010E946608089558
:10132000422FCF010E948D080895422FCF010E94C5
:10133000B4080895422FCF010E94D90808951F9242
:101340000F920FB60F9211242F938F939F93EF93C9
:10135000FF938091C0002091C6008C71E0913A010A
:10136000EF5FEF7190913901E91739F0E0933A019D
:10137000F0E0E35CFE4F208301C082E090913801F1
:10138000892B80933801FF91EF919F918F912F913D
:101390000F900FBE0F901F9018951F920F920FB6CF
:1013A0000F9211248F939F93EF93FF9390913C01A1
:1013B00080913B01981769F0E0913B01EF5FEF717D
:1013C000E0933B01F0E0E35AFE4F80818093C6003A
:1013D00005C0E1ECF0E080818F7D8083FF91EF918B
:1013E0009F918F910F900FBE0F901F90189550589E
:1013F000BB27AA270E940F0A0C94890B0E947B0B23
:1014000038F00E94820B20F039F49F3F19F426F443
:101410000C94780B0EF4E095E7FB0C94720BE92F1B
:101420000E949A0B58F3BA1762077307840795074F
:1014300020F079F4A6F50C94BC0B0EF4E0950B2E7D
:10144000BA2FA02D0B01B90190010C01CA01A00116
:101450001124FF27591B99F0593F50F4503E68F171
:101460001A16F040A22F232F342F4427585FF3CFB2
:10147000469537952795A795F0405395C9F77EF483
:101480001F16BA0B620B730B840BBAF09150A1F0CC
:10149000FF0FBB1F661F771F881FC2F70EC0BA0F52
:1014A000621F731F841F48F4879577956795B795DA
:1014B000F7959E3F08F0B0CF9395880F08F09927D5
:1014C000EE0F9795879508950E944E0B08F481E0E2
:1014D00008950E947D0A0C94890B0E94820B58F09B
:1014E0000E947B0B40F029F45F3F29F00C94720BB3
:1014F00051110C94BD0B0C94780B0E949A0B68F35D
:101500009923B1F3552391F3951B550BBB27AA27BC
:1015100062177307840738F09F5F5F4F220F331FF6
:10152000441FAA1FA9F335D00E2E3AF0E0E832D0BE
:1015300091505040E695001CCAF72BD0FE2F29D0C1
:10154000660F771F881FBB1F261737074807AB0793
:10155000B0E809F0BB0B802DBF01FF2793585F4F08
:101560003AF09E3F510578F00C94720B0C94BD0B31
:101570005F3FE4F3983ED4F3869577956795B795EA
:10158000F7959F5FC9F7880F911D9695879597F9F5
:101590000895E1E0660F771F881FBB1F621773076E
:1015A0008407BA0720F0621B730B840BBA0BEE1F83
:1015B00088F7E09508950E94E20A6894B1110C94AE
:1015C000BD0B08950E94A20B88F09F5798F0B92F89
:1015D0009927B751B0F0E1F0660F771F881F991F68
:1015E0001AF0BA95C9F714C0B13091F00E94BC0B43
:1015F000B1E008950C94BC0B672F782F8827B85F53
:1016000039F0B93FCCF3869577956795B395D9F7BF
:101610003EF490958095709561957F4F8F4F9F4FC9
:101620000895E89409C097FB3EF4909580957095D5
:1016300061957F4F8F4F9F4F9923A9F0F92F96E91E
:10164000BB279395F695879577956795B795F11193
:10165000F8CFFAF4BB0F11F460FF1BC06F5F7F4F30
:101660008F4F9F4F16C0882311F096E911C0772342
:1016700021F09EE8872F762F05C0662371F096E84B
:10168000862F70E060E02AF09A95660F771F881F1A
:10169000DAF7880F9695879597F90895990F0008BE
:1016A000550FAA0BE0E8FEEF16161706E807F90734
:1016B000C0F012161306E407F50798F0621B730BCF
:1016C000840B950B39F40A2661F0232B242B252B50
:1016D00021F408950A2609F4A140A6958FEF811DF3
:1016E000811D089597F99F6780E870E060E0089594
:1016F0009FEF80EC089500240A941616170618062A
:101700000906089500240A94121613061406050605
:101710000895092E0394000C11F4882352F0BB0F96
:1017200040F4BF2B11F460FF04C06F5F7F4F8F4FF9
:101730009F4F089557FD9058440F551F59F05F3F34
:1017400071F04795880F97FB991F61F09F3F79F0E3
:1017500087950895121613061406551FF2CF469565
:10176000F1DF08C0161617061806991FF1CF8695E7
:101770007105610508940895E894BB2766277727CB
:10178000CB0197F908950E944E0B08F48FEF08954E
:101790000E94DB0B0C94890B0E947B0B38F00E949B
:1017A000820B20F0952311F00C94720B0C94780BA3
:1017B00011240C94BD0B0E949A0B70F3959FC1F3FA
:1017C000950F50E0551F629FF001729FBB27F00DEF
:1017D000B11D639FAA27F00DB11DAA1F649F662744
:1017E000B00DA11D661F829F2227B00DA11D621F93
:1017F000739FB00DA11D621F839FA00D611D221F4D
:10180000749F3327A00D611D231F849F600D211D30
:10181000822F762F6A2F11249F5750409AF0F1F0B3
:1018200088234AF0EE0FFF1FBB1F661F771F881F1C
:1018300091505040A9F79E3F510580F00C94720BD7
:101840000C94BD0B5F3FE4F3983ED4F386957795F7
:101850006795B795F795E7959F5FC1F7FE2B880FC2
:10186000911D9695879597F90895BB274A3031F4D5
:10187000992322F4BDE2909581959F4F0C94410CE1
:10188000BB27FB015527AA27880F991FAA1FA4175A
:1018900010F0A41B83955051B9F7A05DAA3308F04E
:1018A000A95DA193009779F7B111B1931192CB0182
:1018B0000C945A0CDC01FC01672F71917723E1F73E
:1018C000329704C07C916D9370836291AE17BF070D
:0818D000C8F30895F894FFCF5E
:1018D8000E0A0E0000000000001A1A04040B0B0088
:1018E8004F766572003130300054656D703A2030A3
:1018F800302E3020430048756D3A2030302E3000AD
:00000001FF
