S00B00004465322E737265633E
S11300000C9434000C9451000C9451000C94510045
S11300100C9451000C9451000C9451000C94510018
S11300200C9451000C9451000C9451000C94510008
S11300300C9451000C948E020C9451000C945100B9
S11300400C9451000C9451000C9490030C94BE0336
S11300500C9451000C94A3020C9451000C94510084
S11300600C9451000C94510011241FBECFEFD8E022
S1130070DEBFCDBF11E0A0E0B1E0EAEBFCE002C0DE
S113008005900D92A633B107D9F721E0A6E3B1E0BC
S113009001C01D92AB37B207E1F70E94EC000C944B
S11300A05B060C940000299A85E08A95F1F700001C
S11300B029980895CF93C82F662311F0289A01C078
S11300C02898549A559A569A579A5F985E985D98CC
S11300D05C98C7FD5F9AC6FD5E9AC5FD5D9AC4FD36
S11300E05C9A0E9453005F985E985D985C98C3FD8B
S11300F05F9AC2FD5E9AC1FD5D9AC0FD5C9A0E9442
S113010053005C9A5D9A5E9A5F9A87EB9BE0019735
S1130110F1F700C00000CF91089560E00C945A00FC
S1130120611102C0805801C080540C948D0081E09C
S11301300C948D0061E00C945A000C949A00CF93B7
S1130140DF93EC018991882319F00E949A00FACF79
S1130150DF91CF910895CF93C82F209A559A219A71
S1130160549A559A569A579A8FEF99EF0197F1F747
S113017000C000005D9A5C9A0E9453008FE19EE4E7
S11301800197F1F700C000000E9453008FEF90E048
S11301900197F1F700C000000E9453008FEF90E038
S11301A00197F1F700C000005C980E9453008FEFA4
S11301B090E00197F1F700C0000088E20E948D00F2
S11301C088E00E948D000E94970086E00E948D00C6
S11301D08C2FCF910C948D008CE00E94AB0060E0DA
S11301E080E00E94900085E191E00E949F0061E020
S11301F080E00E94900082E291E00E949F0080E4EF
S11302000E948D00C0E0D1E089910E949D0081E0B0
S1130210C833D807C9F780E80E948D0060E08AE0FF
S11302200E94900080E00E949A0061E089E00E94B0
S1130230900081E00E949A0080EC80937C00809181
S11302407A00806880937A0080917A008860809335
S11302507A0080917A00876080937A00809181008F
S11302608B7F8093810080918100836080938100E3
S113027080916F00816080936F007894FFCFCF925C
S1130280DF92EF92FF92CF93DF93EC016A017B013F
S113029020E030E040E752E4C701B6010E94B40513
S11302A087FD0EC060E086E00E9490008CE291E041
S11302B0DF91CF91FF90EF90DF90CF900C949F004F
S11302C020E030E040E251E4C701B6010E94B405E9
S11302D087FD06C060E086E00E949000888180C0AF
S11302E020E030E040E251E4C701B6010E94550429
S11302F087FF13C020E030E040E85FE3C701B601A8
S11303000E94B40587FD09C060E086E00E94900069
S113031080E30E949A00888140C020E030E040E8F9
S11303205FE3C701B6010E94550487FF18C020E0AF
S113033030E0A901C701B6010E94B40587FD0FC0D2
S113034060E086E00E94900080E30E949A0080E3CF
S11303500E949A008EE20E949A0088815CC020E08C
S113036030E0A901C701B6010E94550487FF1CC0F3
S113037020E030E040E85FEBC701B6010E94B4051D
S1130380181694F460E085E00E94900088810E9431
S11303909A0080E30E949A0080E30E949A008EE211
S11303A00E949A00898137C020E030E040E85FEB8A
S11303B0C701B6010E9455041816E4F020E030E0AD
S11303C040E251ECC701B6010E94B405181694F43A
S11303D060E085E00E94900088810E949A0080E39A
S11303E00E949A0089810E949A008EE20E949A00DB
S11303F08A8111C060E085E00E94900088810E949B
S11304009A0089810E949A008A810E949A008EE251
S11304100E949A008B81DF91CF91FF90EF90DF9043
S1130420CF900C949A00CF92DF92EF92FF92CF93E9
S1130430DF93EC016A017B0120E030E048EC52E4F8
S1130440C701B6010E94550481110DC061E084E02A
S11304500E94900081E391E00E949F008EE20E943E
S11304609A0080E32CC020E030E040E251E4C70170
S1130470B6010E94B40561E087FD11C084E00E94CA
S1130480900080E20E949A0088810E949A008981EB
S11304900E949A008EE20E949A008A8110C084E031
S11304A00E94900080E20E949A0080E30E949A00D9
S11304B088810E949A008EE20E949A008981DF91CD
S11304C0CF91FF90EF90DF90CF900C949A0044B1BD
S11304D021E030E0B90102C0660F771F8A95E2F788
S11304E0CB01462B44B925B1962F9095292325B9E4
S11304F025B1822B85B9E3EFF1E03197F1F700C024
S1130500000085B1982395B9FFE628EF60E0F1502B
S113051020406040E1F700C0000008951F920F9250
S11305200FB60F9211248F93EF93FF93EAE7F0E055
S1130530808180648083FF91EF918F910F900FBE33
S11305400F901F9018951F920F920FB60F921124BF
S1130550CF92DF92EF92FF922F933F934F935F934B
S11305606F937F938F939F93AF93BF93EF93FF9377
S1130570CF93DF9300D000D0CDB7DEB780911001C8
S113058090911101A0911201B091130189839A8372
S1130590AB83BC8380917C00823C09F493C008F057
S11305A04CC0803C09F45AC0813C09F09EC0609163
S11305B078007091790080E090E00E94020520E0CC
S11305C030E848E654E40E945A0420E030E040E871
S11305D050E40E94B90520E030E040EA50E40E9473
S11305E05A0421ED32E24BE15EE30E94E8032CE879
S11305F037E640ED5BE30E945A042DEC3CEC4CECF6
S11306005EE30E94E9036B017C0120E030E040E2FC
S113061051E40E94B9050E94CC04DC01CB014AE0FC
S1130620BE016F5F7F4F0E942606B701A601CE016F
S113063001960E94130282EC56C0843C09F44EC019
S113064008F446C0853C09F050C080917800909130
S1130650790084E00E94670280EC45C060917800D4
S11306607091790080E090E00E94020520E030E87B
S113067048E654E40E945A0420E030E048EC52E496
S11306800E94B90520E030E048E452E40E94E80307
S11306906B017C0120E030E040E251E40E94B905A6
S11306A00E94CC04DC01CB014AE0BE016F5F7F4FA6
S11306B00E942606B701A601CE0101960E943F01C1
S11306C081EC11C0809178009091790083EC0BC08B
S11306D0809178009091790084EC05C08091780035
S11306E09091790085EC80937C000F900F900F908F
S11306F00F90DF91CF91FF91EF91BF91AF919F91B7
S11307008F917F916F915F914F913F912F91FF90C6
S1130710EF90DF90CF900F900FBE0F901F90189521
S11307201F920F920FB60F9211242F938F939F93C2
S1130730EF93FF938091C0009091C6008C71E0917B
S11307403801EF5FEF7120913701E21739F0E09340
S11307503801F0E0E55CFE4F908301C082E09091A7
S11307603601892B80933601FF91EF919F918F91F0
S11307702F910F900FBE0F901F9018951F920F92FC
S11307800FB60F9211248F939F93EF93FF93909141
S11307903A0180913901981769F0E0913901EF5FCE
S11307A0EF71E0933901F0E0E55AFE4F80818093C8
S11307B0C60005C08091C1008F7D8093C100FF9168
S11307C0EF919F918F910F900FBE0F901F901895EE
S11307D05058BB27AA270E9400040C947A050E9453
S11307E06C0538F00E94730520F039F49F3F19F42A
S11307F026F40C9469050EF4E095E7FB0C9463056C
S1130800E92F0E948B0558F3BA1762077307840710
S1130810950720F079F4A6F50C94AD050EF4E09557
S11308200B2EBA2FA02D0B01B90190010C01CA01A6
S1130830A0011124FF27591B99F0593F50F4503E51
S113084068F11A16F040A22F232F342F4427585F43
S1130850F3CF469537952795A795F0405395C9F75B
S11308607EF41F16BA0B620B730B840BBAF0915013
S1130870A1F0FF0FBB1F661F771F881FC2F70EC0B2
S1130880BA0F621F731F841F48F487957795679585
S1130890B795F7959E3F08F0B0CF9395880F08F071
S11308A09927EE0F9795879508950E943F0508F4C0
S11308B081E008950E946E040C947A050E947305E9
S11308C058F00E946C0540F029F45F3F29F00C9425
S11308D0630551110C94AE050C9469050E948B05B7
S11308E068F39923B1F3552391F3951B550BBB275B
S11308F0AA2762177307840738F09F5F5F4F220FA0
S1130900331F441FAA1FA9F335D00E2E3AF0E0E896
S113091032D091505040E695001CCAF72BD0FE2FE0
S113092029D0660F771F881FBB1F26173707480774
S1130930AB07B0E809F0BB0B802DBF01FF2793582C
S11309405F4F3AF09E3F510578F00C9463050C9488
S1130950AE055F3FE4F3983ED4F3869577956795AB
S1130960B795F7959F5FC9F7880F911D9695879561
S113097097F90895E1E0660F771F881FBB1F621780
S113098073078407BA0720F0621B730B840BBA0B3E
S1130990EE1F88F7E09508950E94D3046894B1117E
S11309A00C94AE0508950E94930588F09F5798F023
S11309B0B92F9927B751B0F0E1F0660F771F881F60
S11309C0991F1AF0BA95C9F714C0B13091F00E947A
S11309D0AD05B1E008950C94AD05672F782F8827F5
S11309E0B85F39F0B93FCCF3869577956795B395A1
S11309F0D9F73EF490958095709561957F4F8F4F10
S1130A009F4F0895E89409C097FB3EF49095809514
S1130A10709561957F4F8F4F9F4F9923A9F0F92FC0
S1130A2096E9BB279395F695879577956795B7953E
S1130A30F111F8CFFAF4BB0F11F460FF1BC06F5F24
S1130A407F4F8F4F9F4F16C0882311F096E911C036
S1130A50772321F09EE8872F762F05C0662371F057
S1130A6096E8862F70E060E02AF09A95660F771F6B
S1130A70881FDAF7880F9695879597F90895990F47
S1130A800008550FAA0BE0E8FEEF16161706E80754
S1130A90F907C0F012161306E407F50798F0621B75
S1130AA0730B840B950B39F40A2661F0232B242B4A
S1130AB0252B21F408950A2609F4A140A6958FEF69
S1130AC0811D811D089597F99F6780E870E060E0BB
S1130AD008959FEF80EC089500240A9416161706D3
S1130AE018060906089500240A941216130614061B
S1130AF005060895092E0394000C11F4882352F07E
S1130B00BB0F40F4BF2B11F460FF04C06F5F7F4F35
S1130B108F4F9F4F089557FD9058440F551F59F01C
S1130B205F3F71F04795880F97FB991F61F09F3FD6
S1130B3079F087950895121613061406551FF2CFFF
S1130B404695F1DF08C0161617061806991FF1CF4F
S1130B5086957105610508940895E894BB27662776
S1130B607727CB0197F908950E943F0508F48FEF8A
S1130B7008950E94CC050C947A050E946C0538F007
S1130B800E94730520F0952311F00C9463050C94D6
S1130B90690511240C94AE050E948B0570F3959F92
S1130BA0C1F3950F50E0551F629FF001729FBB2760
S1130BB0F00DB11D639FAA27F00DB11DAA1F649FFC
S1130BC06627B00DA11D661F829F2227B00DA11DAF
S1130BD0621F739FB00DA11D621F839FA00D611D35
S1130BE0221F749F3327A00D611D231F849F600D56
S1130BF0211D822F762F6A2F11249F5750409AF07F
S1130C00F1F088234AF0EE0FFF1FBB1F661F771F0A
S1130C10881F91505040A9F79E3F510580F00C94D5
S1130C2063050C94AE055F3FE4F3983ED4F38695D8
S1130C3077956795B795F795E7959F5FC1F7FE2B75
S1130C40880F911D9695879597F90895BB274A308B
S1130C5031F4992322F4BDE2909581959F4F0C9431
S1130C603206BB27FB015527AA27880F991FAA1F05
S1130C70A41710F0A41B83955051B9F7A05DAA33B3
S1130C8008F0A95DA193009779F7B111B19311927E
S1130C90CB010C944B06DC01FC01672F7191772387
S1130CA0E1F7329704C07C916D9370836291AE1723
S10D0CB0BF07C8F30895F894FFCFBE
S1130CBA0E0A0E0000000000001A1A04040B0B00AE
S1130CCA303030300054656D703A2030302E302088
S1130CDA430048756D3A2030302E30004F766572E5
S1090CEA0031303000006F
S9030000FC
